:040000008031122811
:100008007E1480310B1F10282100121D102820009B
:10001800121D1028853146257E10090080311428CC
:10002800C4308400223085002C30FE000130FF00EF
:10003800883101208031BD308400003085000E30C9
:10004800FE000030FF00883101208031B03084008C
:10005800013085002C30FE000030FF00883101207F
:10006800803120308400023085003430FE000030BA
:10007800FF00883101208031A030840002308500E3
:100088004030FE000030FF008831012080312030F0
:100098008400033085004030FE000030FF008831C6
:1000A80001208031A0308400033085004030FE00FC
:1000B8000030FF0088310120803120308400043076
:1000C80085004030FE000030FF00883101207E109E
:1000D800200093313B2B21004408450403190800F4
:1000E800DA2BC4308600223087002630C03FC53066
:1000F800860022308700023081002100C401C5013A
:1001080002302300DC005C08DA0008009531252560
:10011800803122008E129F30943157248031C430B0
:100128008600223087000030943157248031C03F48
:1001380000309431572480312300DC00C53086001C
:10014800223087005C088100003094315724230056
:10015800DC00C6308600223087005C08810022005F
:100168008E162100C401C50103302300DC005C08A1
:10017800DA0008009631052680310030210045025A
:10018800043003194402031CBE28C4308600223000
:100198008700413101082300DC005C082400D400FA
:1001A800C430860022308700423101082300DC0079
:1001B8005C082400D500C430860022308700433113
:1001C80001082300DC005C082400D60022008E12FF
:1001D800240055082300DC005C082100B30024003B
:1001E80056082300DD005D082100B40024005408EF
:1001F8008731A92722008E162100C401C5010800F5
:10020800963105268031003021004502023003195D
:100218004402031C0429C43086002230870041317F
:1002280001082300DC005C082400D700570893313C
:10023800B8232100C401C501C430860022308700DC
:10024800B030C03F2300DA01DA0A080096310526EB
:100258008031013021004502043003194402031C97
:100268002A29933106238031C43086002230870042
:10027800413101082300DC005C082400D800C430A8
:10028800860022308700423101082300DC005C0828
:100298002400D900C4308600223087004331010889
:1002A8002300DC005C082400DA0022008E120230F1
:1002B80094315724803124005808943157248031D0
:1002C8002400590894315724803124005A08943165
:1002D8005724803104302100C4000030C5000130AB
:1002E800450204300319440203189329C43023003B
:1002F800DC002230DD002100440823005C07860072
:100308002100450823005D3D8700010894315724EA
:10031800803101302100C4070030C53D7329220017
:100328008E16C4308600223087000030C03F21007E
:10033800C401C50104302300DC005C08DA000800B1
:100348009631052680310130210045020430031919
:100358004402031CA42904302300DC005C08DA00F2
:100368008931C321803100292400E001E101000026
:1003780001302400E0070030E13DEA3061026030DE
:1003880003196002031CBB2921000E158E150E16D9
:100398008E1622008C16C43086002230870000306A
:1003A800C03F2300DA01DA0A0029C430860022306F
:1003B800870001088E31A5268031C430860022309E
:1003C800870021001C08C03FC53086002230870006
:1003D8001B0881000230222B96310526803100301F
:1003E80021004502023003194402031CF029C430DD
:1003F800860022308700413101082300DC005C08B8
:10040800D900C4308600223087000030C03FC53094
:100418008600223087005908ED29C4308600223032
:1004280087000030C03FC530860022308700590859
:100438008100C6308600223087001B088100C73043
:100448008600223087001C088100C83086002230D0
:10045800870040308100C430860022308700453153
:100468008101CA308600223087004408810045088F
:10047800DC00CB308600223087005C088100CC305D
:10048800860022308700420881004308DC00CD3016
:100498008600223087005C088100CE30860022303A
:1004A800870040308100C4308600223087004B31FD
:1004B8008101D03086002230870048088100490831
:1004C800DC00D1308600223087005C088100D23001
:1004D800860022308700460881004708DC00D330B8
:1004E8008600223087005C0881001030232B96316B
:1004F80005268031003021004502033003194402EB
:10050800031C7B2A23005903031D0800C4308600FE
:100518002230870042310108DC00DD015C08DD0083
:10052800DC01C430860022308700413101085C07B5
:100538002400DC0023005D0803185D0A2400DD00A8
:10054800230047082400E700230046082400E600AB
:1005580002302100C4000030C500230049082400EF
:100568006706031DBB2A23004808240066060319F2
:10057800FE2A0130E6070030E73D40306606670492
:10058800031DC82AE601E7016608A03E860003307D
:10059800870001082300DC00C430DD002230DE00C3
:1005A8002100440823005D07DF00210045082300DF
:1005B8005E3DE0005F088600600887005C088100F7
:1005C80001302100C4070030C53D4408FE3E230029
:1005D800DC00FF302100453D2300DD0024005D08DC
:1005E80023005D06031DFC2A24005C0823005C062A
:1005F800031DB12A240067082300C70024006608E9
:100608002300C600C4308600223087002100440839
:10061800FE3EC03F4408FE3E2300DC00FF302100C0
:10062800453D2300DD005D08DE00C5308600223030
:1006380087005E08810024005C08023E2300DC007D
:100648005C08DA0000299631052680310030210047
:100658004502033003194402031C272BC4308600CB
:1006680022308700423101082300DC00DD015C08EC
:10067800DD00DC01C43086002230870041310108EA
:100688005C072400DE0023005D0803185D0A2400CF
:10069800DF0024005E08033E2300DC000030240055
:1006A8005F3D2300DD005D0821004502031D602B2E
:1006B80023005C08210044020318662B96310526A6
:1006C80080314D2B230059030319772BC430860042
:1006D800223087000030C03FC430860022308700B7
:1006E80041318101EE292400E401E5015F0865023A
:1006F800031D802B5E0864020318CB2BC730230030
:10070800DC002230DD002400640823005C0786003A
:100718002400650823005D3D87000108DE005E08AF
:100728002400DB0023004408013E2400E2000030DE
:100738002300453D2400E300403062066304031DA6
:10074800A72BE201E3012300430824006306031DED
:10075800B12B23004208240062060319CB2B63083F
:100768002300C500240062082300C40024005B089D
:100778002300DC004408203E8600043087005C0823
:10078800810001302400E4070030E53D7A2BC430B5
:100798008600223087006408C03F65082300DC001B
:1007A800C5308600223087005C08ED29C4308600F9
:1007B8002230870001082300DC00DD015D08003AD3
:1007C8000319E72B192C5C08A03A0319D929013A17
:1007D8000319D929033A0319D929013A0319D9293F
:1007E800073A0319D929153A03197528033A031941
:1007F8008A28063A03190729013A03192D29033AC9
:100808000319C128013A0319A7290E3A0319B8296F
:10081800793A0319F329013A03197E2A033A03198D
:100828002A2B013A0319112A192C08002000520317
:10083800031D322C50081F39003A031D322C2100A9
:10084800BF17033020005106031D302C0130E6008D
:1008580066082300D600322C2300D6012000520857
:10086800031D080050081F39023A031D08005408E8
:100878000F39003A0319080054080F39E60003300D
:10088800660203180800203021004906031D0800ED
:10089800BF172000D41B612C54080F3909072A3EC2
:1008A800860002308700403FEB00413FEC005408CF
:1008B8000F39383E86000230712C54080F39090769
:1008C800B73E860001308700403FEB00413FEC0017
:1008D80054080F39BD3E8600013087000108E60044
:1008E8006608EA006A18822CFB30E600FF30E70051
:1008F8006B086605EB006C086705872C04306B04F1
:10090800EB0000306C04EC00D41B962C54080F3913
:1009180009072A3E8600023087006B08C03F6C0832
:10092800C13FA12C54080F390907B73E8600013092
:1009380087006B08C03F6C08C13F03305106031D98
:10094800C52C6B0886006C088700811FBA2CD41B45
:10095800B32C54080F39383E86000230B82C54089E
:100968000F39BD3E86000130870081146B08860070
:100978006C08870001156B0886006C0887008117D2
:10098800080004306B06EB0000306C06EC006B08C6
:1009980086006C088700811FEE2C7F30E6006B080C
:1009A80086006C088700660881056B0886006C085D
:1009B800870001170530E0000030E1006C08E30013
:1009C8006B08E2000230E4000030E5009431F524C1
:1009D8008431F32C6B0886006C08870001170430FB
:1009E80020006B06EB0000306C06EC00EA18022DC4
:1009F8006B0886006C088700811F292DD41B0A2DDF
:100A080054080F39383E860002300F2D54080F392C
:100A1800BD3E86000130870081103B30E6006B0840
:100A280086006C088700660881050530E000003004
:100A3800E1006C08E3006B08E2000230E4000030DB
:100A4800E5009431F5248431312D3B30E6006B0804
:100A580086006C08870066088105200054080F3955
:100A6800983EE600E7010E30E73D6608E8006708B3
:100A7800E900FE30E6006808860069088700660815
:100A88008105080021004903031D552D3D008E1ADC
:100A9800552D90011214121602302100A2002208CE
:100AA800C9003D001019121D622DFB302100A20063
:100AB80022083D0090059431142485313D008E1C98
:100AC800682D2000121108001018121C792D8E3183
:100AD80001268531210012150430A2002208C90020
:100AE800FE30A20022083D009005101A121E7F2D2C
:100AF8009331D52385313D00101FA92D121F942D48
:100B080073302000E0000030E1000030E2000030E7
:100B1800E3000130E4000030E5009431F52485312C
:100B2800BF302100A20022083D00900593315123D7
:100B38008531230052080319A32D0130D20252082F
:100B4800031DA92D8831DE2085313D00901A921EA3
:100B5800B02D94317C2485313D009018921CC62D0F
:100B6800FF302000E0007F30E1000030E20000307C
:100B7800E3000130E4000030E5009431F5248531CC
:100B88003D0093010430210049020318CE2D2000B6
:100B9800121108003D00921D252E2100A401222ECD
:100BA8000F082100A2002208CA004A0CA200A20CC9
:100BB800220C0F39A30023082300D400F7302100AA
:100BC800A20022083D00900521004A19F12D2300BA
:100BD8005408383E86000230F62D23005408BD3EE6
:100BE800860001308700010801392100A200013088
:100BF800A20601082206FE392206810023005408B5
:100C0800031D0A2E963147268531192E7230200091
:100C1800E0000030E100CA30E2000030E3000030BC
:100C2800E400E5009431F524853101302100A2006B
:100C38002208A407043024020318252E3D00901929
:100C4800D42D2000121108002100121124003B08A5
:100C58003C040319382E3B0886003C088700811F96
:100C6800382E210012150800033021004806031908
:100C7800C8014808031D422E121508000230480614
:100C8800031D5F2EA501A50A0030A6000030A700AD
:100C9800A80102308B314623863121002608240022
:100CA800BC00210025082400BB0003302100B0004F
:100CB8003008C800EB2E4803031DEB2E41302300FB
:100CC8004A02031C692E40306A2E4A082100B000EF
:100CD8003008B200320823004A022100B000300870
:100CE8002300CA0020302400BE008030BD0021004F
:100CF8003208B0003008B100240042080319A12EC0
:100D0800C22E24003F088600400887000108210001
:100D1800B00024003D0886003E0887002100300806
:100D2800810001302400BD070030BE3D0130BF07FF
:100D38000030C03D01302100B10221003108031903
:100D4800C62E852E24003F0886004008870001082B
:100D58002100B00024003D0886003E0887002100DD
:100D68003008810001302400BD070030BE3D01304D
:100D7800BF070030C03D01302100B1022100310819
:100D8800031DA62E23004A08031DD52E403021003E
:100D98003206031DD12E0230D22E0330B0003008A7
:100DA800C8002100A501A50A8030A6002030A700B0
:100DB8003208B0003008A80002308B3146232100E9
:100DC80026082400BC00210025082400BB002100BF
:100DD800121508007108FD007008FC0074087504FD
:100DE800031908007C0886007D08870072088100C6
:100DF80074087C07F60075087D3DF7007608FF3E0D
:100E0800F800FF30773DF9007808860079088700F8
:100E18007208810000307502033003197402031C44
:100E280008007C08013EF60000307D3DF70076089A
:100E3800860077088700720881007C08023EF60069
:100E480000307D3DF7007608860077088700720835
:100E5800810074087C07F60075087D3DF700760868
:100E6800FE3EF800FF30773DF900780886007908E3
:100E780087007208810074087C07F60075087D3DBC
:100E8800F7007608FD3EF800FF30773DF900780856
:100E980086007908870072088100003075020730E3
:100EA80003197402031C08007C08033EF600003096
:100EB8007D3DF70076088600770887007208810074
:100EC80074087C07F60075087D3DF7007608FC3E3F
:100ED800F800FF30773DF900780886007908870028
:100EE8007208810000307502093003197402031C6E
:100EF80008007C09F6007D09F700F60A0319F70ACD
:100F080003307605FA0000307705FB007A08FC0705
:100F18007B08FD3D7A08F4027B08F53BFC30F405BC
:100F2800FF30F50574087504031908007C0886006D
:100F38007D088700720881000130F4020030F53B1B
:100F48000130FC070030FD3D962F2100B80021003C
:100F580048080319B32F863128268731AB2F033071
:100F68009431572487312100380894315724873128
:100F780021003308943157248731210034089431F3
:100F8800572487312100B901BA0100309431572420
:100F980087312100B5003A08C43EB600B7012230B7
:100FA800B73D3608860037088700350881000130CC
:100FB800B5003508BA0740303A02031CC92FC430BF
:100FC800A5002230A6004030B5003508A7009331AF
:100FD8009E23873186312826873121004808031D42
:100FE800EE2F0130B5003508B9070430390203186F
:040FF8000800C82FF6
:101002006400800101310130FE020030FF3B7F08A5
:101012007E04031900340228200050081F39013AC7
:10102200031D0800500E890C0339013A031D080004
:101032005408031958285403031D08005828433044
:101042002100BD000230BE000030C1000830C000E7
:101052003F14BF17080043302100BD000230BE001C
:10106200BF17080057082300B400200056082300C9
:10107200B3004B30F0007008B000B501B601B217F2
:1010820008004B302100BD000230BE000030C1001C
:101092000730C000C130F0007008BF0008005208DD
:1010A200F00070082400C1002100BF170800510899
:1010B200F000F1017108003A0319602871287008E4
:1010C200003A03192028013A03192C28213A03195E
:1010D2003328013A03194228033A03195028712888
:1010E2000800230037088600380887000030011BFB
:1010F2000130F50004303706B70000303806B8007A
:10110200083021004906031D9528200052087F3926
:101112003D009600160803199028103091280430DB
:10112200F30073082100C9004603031DD528583077
:10113200F3000030F40023003708860038088700E7
:1011420042317308C03F7408C13F89314F21883151
:10115200023023005806031DBA28370886003808D3
:10116200870004308100370886003808870081171D
:1011720008007508031DC92837088600380887004B
:101182004830810037088600380887008117080038
:101192003708860038088700083081003708860043
:1011A20038088700811708002300B21FDB283508A2
:1011B2003608B2132100C601080023005008031D9F
:1011C20008000130F0007008D0004F08031D08002D
:1011D2000130F0007008CF00023021004606031DE6
:1011E200052923003708860038088700413181012C
:1011F20037088600380887004830810037088600A3
:1012020038088700811708004603031D08002300E1
:10121200D3010830F0002100470A860087017008D8
:1012220081005030F0000030F1004708023E860095
:1012320087017008C03F7108C13F0430F0004708C1
:1012420086008701700881004708860087018117A0
:101252000130F00070082300D30021004208013E53
:10126200F0000030433DF1007008860071088700ED
:10127200083081005030F0000030F1004208860052
:101282004308870042317008C03F7108C13F4208DD
:101292008600430887008030810008000830F00093
:1012A2007008F200003021004102083003194002A8
:1012B20003186C294008F0007008F2002300580857
:1012C200031D6529013069295803031D6C29023069
:1012D200F0007008D8007208F000F10170082100D7
:1012E200C0027108C13B23003708013EF000003004
:1012F200383DF1007008860071088700720881008D
:101302005830F0007008D70021003F1CA229BF29E5
:1013120021003D0884003E0885000008F0002300FB
:101322005708860087017008810001302100BD073F
:101332000030BE3D0130F00070082300D7070130B5
:10134200F202720803190800892921003D0884006D
:101352003E0885000008F000230057088600870138
:101362007008810001302100BD070030BE3D013010
:10137200F00070082300D7070130F2027208031947
:101382000800A62922008E12033094315724893195
:10139200C43086002230870041310108943157243D
:1013A2008931C430860022308700423101089431ED
:1013B20057248931C4308600223087004331010826
:1013C20094315724893104302100C4000030C50013
:1013D200013045020430031944020318392A00304F
:1013E2009431572489312100A8002808AB00C43069
:1013F200A8002230A9004408280786004508293D94
:10140200870001082B0603192E2A22008E16C430EB
:10141200860022308700FF30C03FC5308600223070
:101422008700210044088100C430A8002230A900AE
:101432004408280786004508293D87000108AA00BC
:10144200C6308600223087002A088100C730860015
:10145200223087002B08810008000130C4070030C9
:10146200C53D01304502043003194402031CF02932
:1014720022008E16C4308600223087000030C03F22
:1014820008002000500E890C0339003A031D0800A1
:10149200972A2100BF1708302000ED006D082100B7
:1014A200C90008008B31CA2308008C314F24080080
:1014B200DB302100BD000130BE003F1401302000AE
:1014C200ED006D082100C000BF17080097314327C7
:1014D200080084311A2408005408523E2100BD003D
:1014E2000230BE003F1401302000ED006D082100E3
:1014F200C000BF1708002100BF1720005208ED00EE
:101502005408523E8600023087006D0881000800B0
:101512000230E0000030E1000030E2000030E30081
:101522000030E400E5009431F52408005108ED0094
:10153200EE016E08003A03199F2AC22A6D08003A8A
:101542000319672A013A03196A2A023A03196A2A15
:10155200063A03194A2A033A0319532A013A03198C
:10156200892A0F3A0319592A013A0319562A033ACA
:1015720003196D2A013A03197C2A073A0319C22A70
:10158200C22A0800F80070080319D02A7835B73E3D
:10159200860001308700403FF900413FD82A783564
:1015A2002A3E860002308700403FF900413FFA00A0
:1015B20079087A04031DE02AF001F1010800FF30E6
:1015C2007105F4007F307205F500790886007A080B
:1015D200870042317408C03F7508C13F7908013E57
:1015E200F40000307A3DF500740886007508870023
:1015F200730881004030F400790886007A08870079
:1016020074088105790886007A08870081157908AF
:1016120086007A088700811770080319292B78350C
:10162200B73E860001308700403FF400413FF5009D
:1016320004307406F60000307506F7007835B73EC0
:101642008600013087007608C03F7708C13F412BF2
:1016520078352A3E860002308700403FF400413F41
:10166200F50004307406F60000307506F700783590
:101672002A3E8600023087007608C03F7708C13FC5
:101682007A08F1007908F00008002100AD00250871
:101692000319542B2D35B73E860001308700403F99
:1016A200AE00413F5C2B2D352A3E8600023087007A
:1016B200403FAE00413FAF002E082F04031D642BB4
:1016C200A501A6010800FF302605A9007F302705E5
:1016D200AA002E0886002F08870042312908C03F41
:1016E2002A08C13F2E08013EA90000302F3DAA0062
:1016F200290886002A088700280881004030A900AE
:101702002E0886002F088700290881052E088600EA
:101712002F08870081152E0886002F088700811761
:1017220025080319AD2B2D35B73E86000130870001
:10173200403FA900413FAA0004302906AB00003017
:101742002A06AC002D35B73E8600013087002B08F3
:10175200C03F2C08C13FC52B2D352A3E86000230E2
:101762008700403FA900413FAA0004302906AB0090
:1017720000302A06AC002D352A3E86000230870052
:101782002B08C03F2C08C13F2F08A6002E08A50039
:101792000800803020005006031D0800C030F00011
:1017A20070082100BF003A2C73302100BD00983030
:1017B200BE000030C1001230C00008005208031DF4
:1017C200112C5208F000F101F035F10D9F30700735
:1017D20084009830713D8500003F2100BD00013F2B
:1017E200BE003E08F1003D08F000023070078400A0
:1017F20071080318710A85000008F2007208C0001F
:101802003E08F1003D08F0000330700784007108C3
:101812000318710A85000008F2007208C10008006E
:101822002100BF010800043052020318342C520870
:10183200F000F101F035F10D93307007840098301B
:10184200713D8500003F2100BD00013FBE003D0803
:1018520084003E0885000008F000F1017008C00015
:101862007108C10008002100BF0108002100BF016A
:10187200080020005308F000F1017108003A031932
:10188200432C372C7008013A0319D52B033A03195C
:10189200DF2B013A0319142C372C08002100BF1743
:1018A2000E302000E8009930E700E9016708860061
:1018B2006808870081010130E7070030E83D013008
:1018C200E6006608E90702306902031C572C203043
:1018D200F0000030F1000030F200F3003030F4008C
:1018E2000030F5008631EE268C313D000E172000C7
:1018F200EA016A08BD3E86000130870081016A085C
:10190200383E86000230870081010130E600660819
:10191200EA0703306A02031C7A2C5230F0000230CC
:10192200F1000030F200F3000230F4000030F50064
:101932008631EE268C313D000E1328302300B7008D
:101942000030B80020302000E60066082100C70001
:101952004708C200FF39031D0030C30020005208AF
:10196200E60066082300DB005B08031DBF2C103075
:101972002000E60066082100C900080001302000AE
:10198200E0000030E100DB30E2000130E300013032
:10199200E4000030E5009431F52420302000E60018
:1019A20066082100C90008003D000E122100BF1B7D
:1019B2001E2D2300B21FEC2C0230F5007508210009
:1019C200C60023004D08031DE82C9631E8262300AB
:1019D200CF01D001080021004208013EF50000308D
:1019E200433DF600750886007608870008308100BE
:1019F2005030F5000030F6004208860043088700A8
:101A020042317508C03F7608C13F4208860043084C
:101A120087000C3081004208860043088700811746
:101A22002300370886003808870004308100370811
:101A3200860038088700811708002000D01F362D45
:101A42000130F50075082100C60023004E08031D71
:101A52002D2D9631E8268C312300CF01D00151087B
:101A6200031D08008831DE2008000230F5007508E9
:101A72002100C6004208013EF5000030433DF60059
:101A82007508860076088700083081005030F5001E
:101A92000030F6004208860043088700423175088C
:101AA200C03F7608C13F42088600430887000430E1
:101AB2008100420886004308870081172D2D2100EE
:101AC200470886008701413FF5007508F200F301DF
:101AD200730823003402031D702D720833020318A9
:101AE200762D3308F2007208F5007508F200F30152
:101AF2007208B3027308B43BF40175087402031848
:101B0200972D7408583E860087010108F2003008BC
:101B1200860002308700720881000130F2007208EC
:101B2200B0070130F2007208F4077E2D3308340446
:101B32000319D22D21004208013EF2000030433D3C
:101B4200F30072088600730887000830810058305D
:101B5200F2000030F3004208860043088700423159
:101B62007208C03F7308C13F470886008701011B06
:101B7200C62D42088600430887004830810042088B
:101B82008600430887008117080042088600430840
:101B920087000830810042088600430887008117C9
:101BA200080021004208013EF2000030433DF300EC
:101BB2007208860073088700083081005030F200F6
:101BC2000030F30042088600430887004231720861
:101BD200C03F7308C13F42088600430887000430B3
:101BE20081004208860043088700811723003508D8
:101BF2003608B2135108031D08008831DE200800A0
:101C0200210012113D009301900198010E30F20063
:101C12009930F100F3017108860072088700810192
:101C22000130F1070030F23D0130F0007008F30797
:101C320002307302031C0C2E16303D0091009F30BF
:101C420097007B309200F4017408F0000130F03507
:101C5200FF3E031D282E7035203E8600870100308E
:101C6200C03F0030C13FC23FC33F0130F0007008A7
:101C7200F4070C307402031C252E3D000E1796014A
:101C82000E120E13F730F000700890052100BF010C
:101C92002300B201B301B4013D009019432E01307B
:101CA200F00070082300D0000130F0007008CF006F
:101CB200CE01CD01D501F4017435B73E8600013065
:101CC20087000030C03FC13F74352A3E8600023093
:101CD20087000030C03FC13F7408BD3E860001301E
:101CE200870081017408383E860002308700810136
:101CF2000130F0007008F40703307402031C5D2EFB
:101D020028302300B7000030B80016303D0098009C
:101D120000302000A3005030A2000830A10004309F
:101D2200F0007008A000A0172300DB01003024009F
:101D3200B7000030B6000030B5000030B400230018
:101D4200CC012100C90108002100A70023009D1C2D
:101D5200AE2E1D12000023001D162000911E102F12
:101D6200230019082100A5002508AA002300590311
:101D7200031DF62E4808013E2100A8000030230072
:101D8200493D2100A900403028062904031DCB2E1D
:101D9200A801A9012300470821002906031DD52E09
:101DA20023004608210028060319080029082300F9
:101DB200C900210028082300C80021002A08A50024
:101DC20023004808A03E8600033087002100250832
:101DD200810008007530F42E1130F42E1530F42EE7
:101DE2002530F42E29309D002A2F21002A08A50033
:101DF200A6012608003A0319FF2E512F2508A03A02
:101E02000319EB2E013A0319ED2E033A0319EF2EB3
:101E1200013A0319F12E073A0319F32E512F21002B
:101E22002708A500A6012608003A0319192F512FE9
:101E32002508A03A0319EB2E013A0319ED2E033AB5
:101E42000319EF2E013A0319F12E073A0319F32E63
:101E5200512FE0309E009F01AA010130A500250804
:101E6200AA0732302A02031C2E2F9D140000000004
:101E720021009D18392F2708031D08001B08230085
:101E82009A00000000002000111E442F21001C08AF
:101E920023009A00000000002000111A08004D2FB4
:101EA2000800210012113D009301900198010E30AB
:101EB2002100A7009930A600A8012608860027085D
:101EC200870081010130A6070030A73D0130A5003F
:101ED2002508A80702302802031C5E2F16303D0099
:101EE20091009F3097007B3092002100A9012908C0
:101EF200A5000130A535FF3E031D7B2F2535203E71
:101F0200860087010030C03F0030C13FC23FC33F5F
:101F12000130A5002508A9070C302902031C782FDF
:101F22003D000E1796010E120E13F7302100A50088
:101F320025083D0090052100BF012300B201B30135
:101F4200B4013D009019962F01302100A50025080B
:101F52002300D00001302100A50025082300CF0076
:101F6200CE01CD01D5012100A9012935B73E860058
:101F7200013087000030C03FC13F29352A3E86002C
:101F8200023087000030C03FC13F2908BD3E8600B5
:101F92000130870081012908383E8600023087001F
:101FA20081010130A5002508A90703302902031C7D
:101FB200B62F28302300B7000030B80016303D009D
:101FC200980000302000A3005030A2000830A10089
:101FD20004302100A50025082000A000A01723003E
:101FE200DB0100302400B7000030B6000030B5003D
:0E1FF2000030B4002300CC012100C90108001A
:1025F60016302100970008009331292392310139C2
:1026060003190800FF2A22008E120630943157243F
:1026160022008E1608007C302100990098012700C0
:102626009B012200960121001A1B0800162B9331EC
:102636006A23933193310E2393319231FB229331E6
:102646008F315227933193318423080022008E1252
:1026560005309431572493310030943157242100AA
:10266600A8002808A90022008E16210029080800C3
:1026760093311A2393319431A32493318B170B177B
:1026860096310526933180316F209331943134246D
:10269600933100308E31A5269331432B013024002F
:1026A600B4070030B53D0030B63D0030B73D2300DD
:1026B6005508031D08000130F0007008CC074C08CF
:1026C600031D0800FF30F0007008CC00080022004F
:1026D6008C018D0140308E00103021008C00F030CE
:1026E6008D003F308E00833023008E008D01103028
:1026F6008C0024008D018C012100951722009D017C
:10270600080021004908031D08003D008E019201C2
:10271600163091009F3097007B30920021001215F1
:102726003D008E19982B8E15932B01302100A500A4
:102736002508C9000800210012114808031DB62B00
:1027460026082400C000210025082400BF0021001F
:102756002708A80028082300CA002400C201C20ACC
:102766002100C801C80A121508002100AA009331E9
:102776000623933122008E12D83094315724933198
:1027860021002A089431572493310030943157247C
:102796009331003094315724933122008E169231B2
:1027A600FF2208003D001215EF302000E600660803
:1027B6003D0090058E1401302000E60066082300D7
:1027C600D500CC0175302000E0000030E10000307B
:1027D600E2000030E3000030E400E5009431F52427
:1027E6000800FC00771DFC2BF0017C089531C32501
:1027F6009331F71C032CF001F00A7C089531C325B0
:102806007C08983EF800F9010E30F93D7808FA0088
:102816007908FB007A0886007B0887007708810024
:1028260008002300D50174302000E0000030E100EC
:102836000030E2000030E3000030E400E5009431AF
:10284600F52494313D008E101211101D312CFB30F1
:102856002000E60066083D009005282C2300CC01E8
:10286600080023005903031D08002000111E08005C
:10287600230043084506031D422C4208440603195B
:1028860008004208203E86000430870001089A00AE
:102896000130C2070030C33D403042064304031DE9
:1028A6000800C201C30108002100A600A701A61F57
:1028B6005F2C22000E15612C22000E110310210040
:1028C600A60D20008E1D692C2100261422000E164E
:1028D600000000000000000022000E12013021005E
:1028E600A5002508A70708302702031C5A2C26082E
:1028F60008003D00181C9E2C210047088600870111
:1029060080300106031D9C2C2300370886003808FA
:10291600870084300106031D9C2C0C30F00021003A
:1029260047088600870170088100470886008701EE
:1029360081173D001810DF30F00070089005080080
:1029460021000E148E148E170D1623000E148E14ED
:102956008E170D1622000E1521000E158E1522005B
:102966000E1221000E1622008E1621008E1622004F
:102976008C16223023009E0090309D0008309F0068
:1029860000309C000B309B00B230220097000800FC
:10299600F8007108F6007008F5007808F40074086D
:1029A600F9000130F2020030F33B720A0319730A90
:1029B6000319080075088600760887000108F400E8
:1029C6007408F7000130F5070030F63D7708F4008B
:1029D600790886008701740881000130F4007408C4
:1029E600F907D42CFC2C95318B25080088310D2055
:1029F600080020006108003A0319052D7F3A0319E3
:102A06001F2D242D6008013A0319F62C033A0319E9
:102A1600242D013A0319F92C063A0319242D773A85
:102A26000319242D013A0319242D073A0319242DDD
:102A3600013A0319242D242D6008FF3A0319242D89
:102A4600242D080022008C120E1521000E118E1561
:102A560022000E1221000E1222008E1621008E1266
:102A6600A901000001302100A8002808A907643048
:102A76002902031C342D22008E12AB3094315724C8
:102A860095310030943157249531003094315724D4
:102A960095310030943157249531003094315724C4
:102AA60022008E160800023021004606031D5E2D08
:102AB6008D3160250800C60123005308031D892DAA
:102AC60021004208013EF6000030433DF70076083B
:102AD600860077088700083081005030F600003005
:102AE600F700420886004308870042317608C03F57
:102AF6007708C13F42088600430887000C308100F2
:102B0600420886004308870081170800D3010800A1
:102B160000302400CE000030CD004B30CC00003019
:102B2600CB00CF01D0010830FD007D08D100230085
:102B3600CB011A30FD007D08F70001309331F423F4
:102B460095311E30FD007D08F70002309331F423E5
:102B56009531F001C030F1002030F2004030FD0028
:102B66007D08F30002308A31C32271082300C100B8
:102B76007008C0002400BB01BC012100C801080088
:102B8600F5002030F1007108F6007008F100013000
:102B9600F135890BCB2D7508F2000130F235FF3E79
:102BA600031DD12D72357107F3000130F335FF3E59
:102BB600031DD92D7335F4007408F60776088600D0
:102BC600870181137008031DF22D75352A3E860094
:102BD600023087007608C03F0030C13FFB2D7535B7
:102BE600B73E8600013087007608C03F0030C13FFF
:102BF60076088600870101137608043E8600870161
:102C060001170800203021004902031C08003D007E
:102C16008E18080021004808031D2D2EC430B80068
:102C26002230B90044083807B0004508393DB100E4
:102C36004030BA003A08B2009731A02796312100F9
:102C4600BB003B08BC003C08B800B9013808C40703
:102C56003908C53D4808031D442E23005A080319A8
:102C6600442EC4302100A5002230A60023005A08B5
:102C76002100B8003808A70093319E23963123001F
:102C8600DA018631282608002D302100A000200810
:102C96002300D20021004A08FD39031D8A2E4A3638
:102CA6003F39A0000130A035FF3E031D562E2035CA
:102CB600203EA1002108C7004708C200FF39031DB6
:102CC6000030C30004304206C20000304306C30091
:102CD600470886008701010C890C0F390D3A031D40
:102CE600872E4708023E86008701403FF000413F9D
:102CF600F1000830F2000030F30050309431CB245C
:102D06009631963194260800953156250800FD30F7
:102D16004A05A00004302006031D080088317220F1
:102D260008002300D801D101CE01CD01D301210035
:102D3600C6017F302000EF002300370886003808E0
:102D4600870020006F088105043023003706B7008E
:102D560000303806B8007F302000EF002300370827
:102D660086003808870020006F088105043023009C
:102D76003706B70000303806B8007F302000EF0075
:102D86002100420886004308870020006F0881055D
:102D96002100BF01C001C1012300B201B301B4018A
:102DA6008A314222963103302000E0000030E100F3
:102DB6000030E2000030E3000030E400E50094312A
:102DC600F52496318C31D52408002300CE01CD019F
:102DD600023021004606031D152F4208013EF3006E
:102DE6000030433DF40073088600740887000830FD
:102DF60081005830F3000030F40042088600430892
:102E0600870042317308C03F7408C13F42088600FC
:102E1600430887004830810042088600430887003F
:102E260081170800410820005702031D1E2F2100AC
:102E36004008200056020318272F57082100C1001A
:102E4600200056082100C00089314F215830F30078
:102E56000030F40023003708860038088700423126
:102E66007308C03F7408C13F3708860038088700DA
:102E76004830810037088600380887008117080027
:102E86002000D801D9017F2F2100BF172300560348
:102E9600031D932F2000D814932F2100BF17932FC3
:102EA6002100BF172000D41B632F54080F390907D0
:102EB6002A3E860002308700403FF200413F6D2FD8
:102EC60054080F390907B73E860001308700403F96
:102ED600F200413FF3007208860073088700811FE5
:102EE600932F7208860073088700011D932F013007
:102EF600F0007008D800932F50081F39F000F10138
:102F06007108003A0319882F932F7008003A0319A5
:102F1600472F013A0319502F033A0319532F932FC2
:102F26002100BF1F08005830BD000030BE003F140E
:102F36000230F0007008C00008002300CB014008F2
:102F460041040319AC2F4008860041088700811B05
:102F5600FE2F4008860041088700413121003208D3
:102F660001020318C12F230040088600410887008C
:102F7600413101082100B3003308B2002300CB0120
:102F86002100320823004B020318E92F4B08C03EEC
:102F9600860087012030873D01082100B300230009
:102FA6004B082100B400B50134083007B6003508D7
:102FB600313DB700360886003708870033088100A0
:102FC6000130B30033082300CB07C32F2100A5012E
:102FD600C030A6002030A7004030B3003308A80058
:102FE60002308B314623210026082300C100210030
:102FF60025082300C0004B08080009340234433476
:103006000034023401340034C03432340934043418
:1030160000340034013402340234013400340534FF
:103026002434003410340134043424340234023499
:103036000534243406340034013405342434013490
:103046000034013407340534813403340A3400343F
:103056000234093404340134003402340A340034AE
:10306600003400340734053402340234403400346A
:1030760000340734053482340234403400340034DA
:103086001E3403344434003465340034763400345A
:10309600613400346E3400347434003465340034E2
:1030A6006334003468340034203400344C34003443
:1030B60074340034643400342E340034123403344F
:1030C600303400343034003430340034303400349A
:1030D600303400343034003430340034303400348A
:1030E600123401340034023402340034003408341B
:1030F600D8340434EE34FF3400340134013402345D
:10310600033401340E340334693400346334003438
:103116006534003446340034553400344E340034BB
:103126009B349834433498348534983461349834D5
:0C313600043403340934043400349834A9
:020000040001F9
:08000000FF3FFF3FFF3FFF3F00
:04000E00E437CF1FE5
:00000001FF
