:040000008031122811
:100008007E1480310B1F10282100121D102820009B
:10001800121D1028833134237E10090080311428E2
:10002800C4308400223085002C30FE000130FF00EF
:100038009531882580312100BF01C001C101C2016D
:10004800C301C401C501C601B03084000130850078
:100058004030FE000030FF00953188258031203087
:100068008400023085001D30FE000030FF0095310D
:1000780088258031A0308400023085004030FE00A1
:100088000030FF009531882580312030840003300E
:1000980085004030FE000030FF00953188257E1035
:1000A80020009531A62D2300550856040319080091
:1000B800DD29C4308600223087002630C03FC53095
:1000C800860022308700013081002300D501D60147
:1000D80002302100BD003D082300EA0008009731E6
:1000E8006527803122008E129F309631C1268031DB
:1000F800C43086002230870000309631C126803116
:10010800C03F00309631C12680312100BD00C53086
:100118008600223087003D08810000309631C126D4
:100128002100BD00C6308600223087003D088100CE
:1001380022008E162300D501D60103302100BD0010
:100148003D082300EA000800883152208031003041
:1001580023005602043003195502031CA828C43092
:10016800860022308700413101082100BD003D088A
:100178002400BD00C43086002230870042310108C7
:100188002100BD003D082400BE00C4308600223096
:100198008700433101082100BD003D082400BF004D
:1001A80022008E1224003E082100BD003D08B30045
:1001B80024003F082100BE003E08B40024003D088A
:1001C80089313F2122008E162300D501D60108006F
:1001D8008831522080310030230056020230031942
:1001E8005502031CEC28C4308600223087004131B8
:1001F80001082100BD003D082400C00040089631D8
:1002080020262300D501D601C4308600223087007D
:10021800B030C03FEA01EA0A080088315220803134
:10022800013023005602043003195502031C11291A
:10023800953174258031C4308600223087004131E1
:1002480001082100BD003D082400C100C43086001B
:1002580022308700423101082100BD003D082400FA
:10026800C200C430860022308700433101082100D3
:10027800BD003D082400C30022008E1202309631D2
:10028800C1268031240041089631C12680312400DE
:1002980042089631C1268031240043089631C12690
:1002A800803104302300D5000030D60001305602DA
:1002B80004300319550203187A29C4302100BD00FF
:1002C8002230BE002300550821003D078600230088
:1002D800560821003E3D870001089631C12680312D
:1002E80001302300D5070030D63D5A2922008E164A
:1002F800C4308600223087000030C03F2300D5017B
:10030800D60104302100BD003D082300EA000800A2
:1003180088315220803101302300560204300319FD
:100328005502031C8C2904302100BD003D08230020
:10033800EA008F3177278031E8282400C401C501FD
:10034800000001302400C4070030C53DEA304502F2
:10035800603003194402031CA42921000E158E15D0
:100368000E168E1622008C16C430860022308700A6
:100378000030C03F2300EA01EA0AE828C4308600BA
:100388002230870001088B31E9238031C430860090
:100398002230870021001C08C03FC530860022306B
:1003A80087001B0881000230BD003D082300EA00D9
:1003B800E828C43086002230870001082100BD00EB
:1003C800BE013E08003A0319EA290D2A3D08A13A60
:1003D8000319C229033A0319C229013A0319C22988
:1003E800073A0319C229153A03195D28033A031974
:1003F8007328063A0319EF28013A03191429033A16
:100408000319AB28013A03198F290E3A0319A129B8
:100418000D2A080020005203031D262A50081F3900
:10042800003A031D262A2100C11703302000510677
:10043800031D242A0130E60066082300E500262A69
:100448002300E50120005208031D080050081F3949
:10045800023A031D080054080F39003A031908002E
:1004680054080F39E60003306602031808002030EC
:1004780021004606031D0800C1172000D41B532A7B
:1004880054080F390907BD3E860001308700403FF8
:10049800EB00413FEC0054080F39C73E612A54086D
:1004A8000F390907B73E860001308700403FEB004F
:1004B800413FEC0054080F39CA3E860001308700DE
:1004C8000108E6006608EA006A18742AFB30E600AC
:1004D800FF30E7006B086605EB006C086705792AB2
:1004E80004306B04EB0000306C04EC00D41B882A49
:1004F80054080F390907BD3E8600013087006B0894
:10050800C03F6C08C13F932A54080F390907B73E0A
:100518008600013087006B08C03F6C08C13F03307C
:100528005106031DB52A6B0886006C088700811FD9
:10053800AA2AD41BA32A54080F39C73EA62A54084E
:100548000F39CA3E86000130870081146B08860087
:100558006C08870001156B0886006C0887008117F6
:10056800080004306B06EB0000306C06EC006B08EA
:1005780086006C088700811FDE2A7F30E6006B0842
:1005880086006C088700660881056B0886006C0881
:10059800870001170530E0000030E1006C08E30037
:1005A8006B08E2000230E4000030E500973135279F
:1005B8008231E32A6B0886006C0887000117043033
:1005C80020006B06EB0000306C06EC00EA18F22AFB
:1005D8006B0886006C088700811F172BD41BF82A2C
:1005E80054080F39C73EFB2A54080F39CA3E860003
:1005F8000130870081103B30E6006B0886006C08EC
:100608008700660881050530E0000030E1006C08CD
:10061800E3006B08E2000230E4000030E5009731A7
:10062800352782311F2B3B30E6006B0886006C08AB
:10063800870066088105200054080F39983EE600B7
:10064800E7010E30E73D6608E8006708E900FE307C
:10065800E6006808860069088700660881050800C2
:1006680021004603031D432B3D008E1A432B9001A6
:100678001214121602302100A2002208C6003D0002
:100688001019121D502BFB302100A20022083D003A
:10069800900596317C2683313D008E1C562B200018
:1006A800121108001018121C672B8631E5268331B9
:1006B800210012150430A2002208C600FE30A20054
:1006C80022083D009005101A121E6D2B96313D260A
:1006D80083313D00101F972B121F822B733020008F
:1006E800E0000030E1000030E2000030E3000130BB
:1006F800E4000030E500973135278331BF30210011
:10070800A20022083D0090059531B92583312300C8
:1007180061080319912B0130E1026108031D972B31
:100728008B317D2383313D00901A921E9E2B96318A
:100738009C2683313D009018921CB42BFF3020007A
:10074800E0007F30E1000030E2000030E3000130DB
:10075800E4000030E5009731352783313D009301EF
:100768000430210046020318BC2B20001211080097
:100778003D00921D112C2100A4010E2C0F08210010
:10078800A20022082300EE006E0C2100A200A20C99
:10079800220C0F39A30023082300E300F7302100BF
:1007A800A20022083D00900523006E19DE2B630885
:1007B800C73EE02B6308CA3E860001308700010867
:1007C80001392100A2000130A20601082206FE39E3
:1007D8002206810023006308031DF62B88319B2025
:1007E8008331052C72302000E0000030E100EE304B
:1007F800E2000130E3000030E400E50097313527DE
:10080800833101302100A2002208A4070430240209
:100818000318112C3D009019C22B2000121108005A
:100828002100121123004D084E040319242C4D08F1
:1008380086004E088700811F242C2100121508000D
:1008480003306B060319EB016B08031D2E2C2100E6
:100858001215080002306B06031D4D2C2100A5015E
:10086800A50A0030A6000030A700A80102308D318B
:100878005E258431210026082300CE0021002508AA
:100888002300CD0003302100B00030082300EB0026
:10089800D82C6B03031DD82C41305902031C562C4D
:1008A8004030572C59082100B0003008B2003208F7
:1008B800230059022100B00030082300D90020305D
:1008C800D2008030D10021003208B0003008B100D9
:1008D8002300580803198D2CAE2C230053088600DA
:1008E8005408870001082100B00023005108860041
:1008F8005208870021003008810001302300D10709
:100908000030D23D0130D3070030D43D0130210002
:10091800B102210031080319B22C712C23005308AD
:1009280086005408870001082100B0002300510800
:10093800860052088700210030088100013023001A
:10094800D1070030D23D0130D3070030D43D01300B
:100958002100B10221003108031D922C23005908FF
:10096800031DC22C403021003206031DBD2C02306D
:10097800BE2C0330B00030082300EB002100A50195
:10098800A50A8030A6002030A7003208B000300841
:10099800A80002308D315E25210026082300CE00F4
:1009A800210025082300CD00210012150800710838
:1009B800FD007008FC0074087504031908007C0821
:1009C80086007D0887007208810074087C07F6009D
:1009D80075087D3DF7007608FF3EF800FF30773D4B
:1009E800F9007808860079088700720881000030CD
:1009F8007502033003197402031C08007C08013EC9
:100A0800F60000307D3DF7007608860077088700FD
:100A1800720881007C08023EF60000307D3DF70038
:100A280076088600770887007208810074087C07BA
:100A3800F60075087D3DF7007608FE3EF800FF30A9
:100A4800773DF900780886007908870072088100E8
:100A580074087C07F60075087D3DF7007608FD3EB2
:100A6800F800FF30773DF90078088600790887009C
:100A78007208810000307502073003197402031CE4
:100A880008007C08033EF60000307D3DF70076083C
:100A98008600770887007208810074087C07F600D2
:100AA80075087D3DF7007608FC3EF800FF30773D7D
:100AB800F9007808860079088700720881000030FC
:100AC8007502093003197402031C08007C09F6003A
:100AD8007D09F700F60A0319F70A03307605FA00CC
:100AE80000307705FB007A08FC077B08FD3D7A0893
:100AF800F4027B08F53BFC30F405FF30F50574087B
:100B08007504031908007C0886007D0887007208B0
:100B180081000130F4020030F53B0130FC07003061
:100B2800FD3D832D210012113D0093019001980194
:100B38000E302100A7009930A600A80126088600DB
:100B48002708870081010130A6070030A73D013042
:100B5800A5002508A80702302802031CA22D16307C
:100B68003D0091009F3097007B3092002100A90141
:100B78002908A5000130A535FF3E031DBF2D2535E9
:100B8800203E860087010030C03F0030C13FC23F91
:100B9800C33F0130A5002508A9070C302902031C12
:100BA800BC2D3D000E1796010E120E13F7302100D2
:100BB800A50025083D0090052100C1012300B201D0
:100BC800B301B4013D009019DA2D01302100A500D0
:100BD80025082300DF0001302100A5002508230097
:100BE800DE00DD01DC01E4012100A9012935B73E61
:100BF8008600013087000030C03FC13F2935BD3E27
:100C08008600013087000030C03FC13F2908CA3E36
:100C180086000130870081012908C73E860001301F
:100C2800870081010130A5002508A90703302902A2
:100C3800031CFA2D28302300B7000030B800163006
:100C48003D00980000302000A3005030A20008307A
:100C5800A10004302100A50025082000A000A0174D
:100C68002300EF010030C6000030C5000030C4008A
:100C78000030C300DB012100C60108002300690819
:100C880086008701413FF5007508F200F3017308FB
:100C98003402031D512E720833020318572E3308ED
:100CA800F2007208F5007508F200F3017208B30249
:100CB8007308B43BF401750874020318782E74089D
:100CC800583E860087010108F2003008860002308D
:100CD8008700720881000130F2007208B007013005
:100CE800F2007208F4075F2E330834040319B62E95
:100CF80021004408013EF2000030453DF30072082F
:100D0800860073088700083081005830F2000030F0
:100D1800F300440886004508870042317208C03F46
:100D28007308C13F2300690886008701011BA92EAB
:100D3800210044088600450887004830810044089F
:100D480086004508870081170800210044088600AE
:100D58004508870008308100440886004508870058
:100D68008117080021004408013EF2000030453D8B
:100D7800F30072088600730887000830810050303D
:100D8800F2000030F300440886004508870042312D
:100D98007208C03F7308C13F4408860045088700B1
:100DA8000430810044088600450887008117230025
:100DB80035083608B2136008031D08008B317D23FF
:100DC8000800210012113D009301900198010E3096
:100DD800F2009930F100F30171088600720887006B
:100DE80081010130F1070030F23D0130F000700858
:100DF800F30702307302031CF02E16303D009100F9
:100E08009F3097007B309200F4017408F0000130A5
:100E1800F035FF3E031D0C2F7035203E86008701FC
:100E28000030C03F0030C13FC23FC33F0130F00037
:100E38007008F4070C307402031C092F3D000E17CC
:100E480096010E120E13F730F0007008900521007D
:100E5800C1012300B201B301B4013D009019272F4D
:100E68000130F00070082300DF000130F000700846
:100E7800DE00DD01DC01E401F4017435B73E8600D3
:100E8800013087000030C03FC13F7435BD3E860049
:100E9800013087000030C03FC13F7408CA3E860059
:100EA8000130870081017408C73E86000130870041
:100EB80081010130F0007008F40703307402031C4C
:100EC800412F28302300B7000030B80016303D000D
:100ED800980000302000A3005030A2000830A10084
:100EE8000430F0007008A000A0172300EF010030C4
:100EF800C6000030C5000030C4000030C300DB016C
:100F08002100C60108000830F0007008F200003027
:100F1800210043020830031942020318A42F420893
:100F2800F0007008F20023006808031D9D2F0130AF
:100F3800A12F6803031DA42F0230F0007008E800F9
:100F48007208F000F10170082100C2027108C33B69
:100F580023003708013EF0000030383DF1007008EA
:100F6800860071088700720881005830F000700808
:100F7800E6002100411CDA2FF72F21003F088400EA
:100F8800400885000008F0002300660886008701F5
:100F98007008810001302100BF070030C03D0130DA
:100FA800F00070082300E6070130F2027208031906
:100FB8000800C12F21003F08840040088500000870
:100FC800F000230066088600870170088100013060
:100FD8002100BF070030C03D0130F0007008230039
:100FE800E6070130F202720803190800DE2F1630F6
:060FF80021009700080033
:101002009531D125883195317C2588318731FB276F
:1010120088318531962588319531EB250800F50018
:101022002030F1007108F6007008F1000130F1354E
:10103200890B18287508F2000130F235FF3E031DB6
:101042001E2872357107F3000130F335FF3E031D90
:1010520026287335F4007408F6077608860087019F
:1010620081137008031D3F287535BD3E860001308F
:1010720087007608C03F0030C13F48287535B73E2B
:101082008600013087007608C03F0030C13F7608F5
:101092008600870101137608043E86008701011746
:1010A2000800203021004602031C08003D008E1873
:1010B200080023006B08031D8228C4302100B800F9
:1010C2002230B9002300550821003807B000230060
:1010D20056082100393DB1004030BA003A08B2004A
:1010E2008A314E2288312100BB003B08BC003C08FB
:1010F200B800B90138082300D507210039082300B8
:10110200D63D6B08031D98286A0803199828C43035
:101112002100A5002230A60023006A082100B800A1
:101122003808A7009631052688312300EA01843168
:10113200142408002D302100A00020082300E10023
:101142006E08FD39031DE1286E363F392100A000EB
:101152000130A035FF3E031DAA282035203EA10004
:1011620021082300E90069082100C400FF39031D9A
:101172000030C50004304406C40000304506C500F6
:101182002300690886008701010C890C0F390D3A8A
:10119200031DDE286908023E86008701403FF000F9
:1011A200413FF1000830F2000030F3005030973137
:1011B2000B2788318831EC200800973196270800E8
:1011C200FD306E052100A00004302006031D08003A
:1011D2008B31132308002300E801E001DD01DC016B
:1011E200E201E7017F302000EF002300370886008C
:1011F2003808870020006F08810504302300370675
:10120200B70000303806B8007F302000EF0023001E
:10121200370886003808870020006F0881050430EF
:1012220023003706B70000303806B8007F302000B0
:10123200EF002100440886004508870020006F085F
:1012420081052100C101C201C3012300B201B30122
:10125200B4018C315A24883103302000E000003080
:10126200E1000030E2000030E3000030E400E5007D
:101272009731352788318E31EE2608002100B800DB
:1012820023006B0803194929843114248931412927
:1012920003309631C1268931210038089631C126A2
:1012A2008931210033089631C12689312100340861
:1012B2009631C12689312100B901BA010030963137
:1012C200C12689312100B5003A08C43EB600B701F3
:1012D2002230B73D3608860037088700350881007E
:1012E2000130B5003508BA0740303A02031C5F29C5
:1012F200C430A5002230A6004030B5003508A70052
:1013020096310526893184311424893123006B08F2
:10131200031D842901302100B5003508B9070430C6
:101322003902031808005E292300DD01DC010230C6
:101332006706031DC22921004408013EF300003064
:10134200453DF40073088600740887000830810068
:101352005830F3000030F400440886004508870046
:1013620042317308C03F7408C13F440886004508F3
:1013720087004830810044088600450887008117AD
:1013820008002100430820005702031DCC29210038
:101392004208200056020318D52957082100C3002D
:1013A200200056082100C200873187275830F300F9
:1013B2000030F400230037088600380887004231E5
:1013C2007308C03F7408C13F370886003808870099
:1013D20048308100370886003808870081170800E6
:1013E2002000D801D9012D2A2100C117230065034D
:1013F200031D412A2000D814412A2100C117412A85
:101402002100C1172000D41B112A54080F390907E3
:10141200BD3E860001308700403FF200413F1B2A5B
:1014220054080F390907B73E860001308700403F54
:10143200F200413FF3007208860073088700811FA3
:10144200412A7208860073088700011D412A013073
:10145200F0007008D800412A50081F39F000F1014D
:101462007108003A0319362A412A7008003A031912
:10147200F529013A0319FE29033A0319012A412ADF
:101482002100C11F08005830BF000030C0004114C5
:101492000230F0007008C20008002300DA014F0891
:1014A200500403195A2A4F08860050088700811BEE
:1014B200AC2A4F08860050088700413121003208CB
:1014C200010203186F2A23004F0886005008870084
:1014D200413101082100B3003308B2002300DA01D0
:1014E2002100320823005A020318972A5A08C03EE4
:1014F200860087012030873D01082100B3002300C8
:101502005A082100B400B50134083007B600350886
:10151200313DB7003608860037088700330881005E
:101522000130B30033082300DA07712A2100A50134
:10153200C030A6002030A7004030B3003308A80016
:1015420002308D315E25210026082300D0002100C3
:1015520025082300CF005A080800200050081F3930
:10156200013A031D0800500E890C0339013A031D8C
:10157200080054080319F92A5403031D0800F92A24
:101582002E302100BF000230C0000030C3000830FE
:10159200C2004114C11708002E302100BF000230E2
:1015A200C000C117080057082300B40020005608E5
:1015B2002300B3003630F0007008B000B501B60168
:1015C200B217080036302100BF000230C0000030E0
:1015D200C3000730C200C130F0007008C10008002B
:1015E2005208F00070082300D7002100C11708003C
:1015F2005108F000F1017108003A0319012B122B76
:101602007008003A0319C12A013A0319CD2A213A76
:101612000319D42A013A0319E32A033A0319F12AD6
:10162200122B080023003708860038088700003094
:10163200011B0130F50004303706B70000303806D0
:10164200B800083021004606031D362B2000520840
:101652007F393D00960016080319312B1030322BCA
:101662000430F30073082100C60023006703031D42
:10167200762B5830F3000030F40037088600380823
:10168200870042317308C03F7408C13F8731872702
:101692008B31023023006806031D5B2B370886005E
:1016A2003808870004308100370886003808870030
:1016B200811708007508031D6A2B37088600380851
:1016C2008700483081003708860038088700811774
:1016D200080037088600380887000830810037087C
:1016E20086003808870081170800B21F7B2B350857
:1016F2003608B213E701080023005F08031D080043
:101702000130F0007008DF005E08031D08000130A0
:10171200F0007008DE0002306706031DA22B3708B6
:101722008600380887004131810137088600380871
:101732008700483081003708860038088700811703
:1017420008006703031D0800E2010830F000690A7F
:1017520086008701700881005030F0000030F100EF
:101762006908023E860087017008C03F7108C13FC8
:101772000430F0006908860087017008810069085A
:101782008600870181170130F0007008E200210015
:101792004408013EF0000030453DF100700886002B
:1017A20071088700083081005030F0000030F100ED
:1017B200440886004508870042317008C03F71081E
:1017C200C13F440886004508870080308100080038
:1017D2002100A70023009D1CF22B1D1200002300F4
:1017E2001D162000911E1B2C230019082100A500A4
:1017F2002508A800052C1130032C1530032C2530A8
:10180200032C29309D00322C2808A500A6012608A9
:10181200003A03190D2C592C2508A13A0319FC2B67
:10182200033A0319FE2B013A0319002C073A031954
:10183200022C592C21002708A500A6012608003AEF
:101842000319242C592C2508A13A0319FC2B033A1D
:101852000319FE2B013A0319002C073A0319022C33
:10186200592CE0309E009F01A8010130A5002508F7
:10187200A80732302802031C362C9D1400000000F9
:1018820021009D18412C2708031D08001B08230076
:101892009A00000000002000111E4C2C21001C08A0
:1018A20023009A00000000002000111A0800552CA5
:1018B20008002000500E890C0339003A031D08006D
:1018C200AF2C2100C11708302000ED006D08210067
:1018D200C60008008D31E22508008E316726080017
:1018E200EF302100BF000130C00041140130200060
:1018F200ED006D082100C200C11708008931F121F5
:10190200080082310E2208005408EC3E2100BF007C
:101912000130C000411401302000ED006D082100AB
:10192200C200C11708002100C11720005208ED00B3
:101932005408EC3E8600013087006D0881000800E3
:101942000230E0000030E1000030E2000030E3004D
:101952000030E400E5009731352708005108ED001A
:10196200EE016E08003A0319B72CDA2C6D08003A22
:1019720003197F2C013A0319822C023A0319822C93
:10198200063A0319622C033A03196B2C013A031924
:10199200A12C0F3A0319712C013A03196E2C033A48
:1019A2000319852C013A0319942C073A0319DA2CEE
:1019B200DA2C0800F80070080319E82C7835B73ED5
:1019C200860001308700403FF900413FF02C783516
:1019D200BD3E860001308700403FF900413FFA00DA
:1019E20079087A04031DF82CF001F1010800FF3098
:1019F2007105F4007F307205F500790886007A08D7
:101A0200870042317408C03F7508C13F7908013E22
:101A1200F40000307A3DF5007408860075088700EE
:101A2200730881004030F400790886007A08870044
:101A320074088105790886007A088700811579087B
:101A420086007A088700811770080319412D7835BE
:101A5200B73E860001308700403FF400413FF50069
:101A620004307406F60000307506F7007835B73E8C
:101A72008600013087007608C03F7708C13F592DA4
:101A82007835BD3E860001308700403FF400413F7B
:101A9200F50004307406F60000307506F70078355C
:101AA200BD3E8600013087007608C03F7708C13FFF
:101AB2007A08F1007908F00008002100AD0025083D
:101AC20003196C2D2D35B73E860001308700403F4B
:101AD200AE00413F742D2D35BD3E8600013087009A
:101AE200403FAE00413FAF002E082F04031D7C2D66
:101AF200A501A6010800FF302605A9007F302705B1
:101B0200AA002E0886002F08870042312908C03F0C
:101B12002A08C13F2E08013EA90000302F3DAA002D
:101B2200290886002A088700280881004030A90079
:101B32002E0886002F088700290881052E088600B6
:101B42002F08870081152E0886002F08870081172D
:101B520025080319C52D2D35B73E860001308700B3
:101B6200403FA900413FAA0004302906AB000030E3
:101B72002A06AC002D35B73E8600013087002B08BF
:101B8200C03F2C08C13FDD2D2D35BD3E8600013002
:101B92008700403FA900413FAA0004302906AB005C
:101BA20000302A06AC002D35BD3E8600013087008C
:101BB2002B08C03F2C08C13F2F08A6002E08A50005
:101BC2000800803020005006031D0800C030F000DD
:101BD20070082100C100522E30302100BF00983021
:101BE200C0000030C3001230C20008005208031DBA
:101BF200292E5208F000F101F035F10D5C3070072A
:101C020084009830713D8500003F2100BF00013FF4
:101C1200C0004008F1003F08F00002307007840065
:101C220071080318710A85000008F2007208C200E8
:101C32004008F1003F08F00003307007840071088B
:101C42000318710A85000008F2007208C300080038
:101C52002100C10108000430520203184C2E520820
:101C6200F000F101F035F10D50307007840098302A
:101C7200713D8500003F2100BF00013FC0003F08C9
:101C82008400400885000008F000F1017008C200DD
:101C92007108C30008002100C10108002100C10130
:101CA200080020005308F000F1017108003A0319FE
:101CB2005B2E4F2E7008013A0319ED2D033A0319DA
:101CC200F72D013A03192C2E4F2E08002100C117BF
:101CD2000E302000E8009930E700E901670886002D
:101CE2006808870081010130E7070030E83D0130D4
:101CF200E6006608E90702306902031C6F2E2030F5
:101D0200F0000030F1000030F200F3003030F40057
:101D12000030F5008431DB248E313D000E172000A7
:101D2200EA016A08CA3E86000130870081016A081A
:101D3200C73E86000130870081010130E600660857
:101D4200EA0703306A02031C922EEC30F0000130E5
:101D5200F1000030F200F3000230F4000030F50030
:101D62008431DB248E313D000E1328302300B7006E
:101D72000030B80020302000E60066082300E900A9
:101D820069082100C400FF39031D0030C50020008E
:101D92005208E60066082300EF006F08031DD82EE4
:101DA20010302000E60066082100C600080001305D
:101DB2002000E0000030E100EF30E2000130E300FB
:101DC2000130E4000030E500973135272030200053
:101DD200E60066082100C60008003D000E12210040
:101DE200C11B352F2300B21F032F0230F5007508E7
:101DF200E7005C08031DFF2E893195212300DE01D7
:101E0200DF01080021004408013EF5000030453D95
:101E1200F600750886007608870008308100503089
:101E2200F5000030F600440886004508870042317C
:101E32007508C03F7608C13F440886004508870000
:101E42000C30810044088600450887008117230072
:101E5200370886003808870004308100370886007A
:101E620038088700811708002000D01F4C2F01304E
:101E7200F50075082300E7005D08031D432F893133
:101E820095218E312300DE01DF016008031D080069
:101E92008B317D2308000230F50075082300E7002E
:101EA20021004408013EF5000030453DF60075086A
:101EB200860076088700083081005030F500003037
:101EC200F600440886004508870042317508C03F85
:101ED2007608C13F44088600450887000430810027
:101EE20044088600450887008117432F22008E127E
:101EF20003309631C1268F31C430860022308700EC
:101F0200413101089631C1268F31C430860022301A
:101F12008700423101089631C1268F31C4308600D4
:101F220022308700433101089631C1268F310430B7
:101F32002300D5000030D6000130560204300319C8
:101F420055020318F72F00309631C1268F31210038
:101F5200A8002808AB00C430A8002230A900230042
:101F62005508210028078600230056082100293D34
:101F7200870001082B060319EB2F22008E16C430AE
:101F8200860022308700FF30C03FC53086002230F5
:101F92008700230055088100C4302100A8002230A8
:101FA200A9002300550821002807860023005608AF
:101FB2002100293D87000108AA00C6308600223090
:101FC20087002A088100C7308600223087002B084C
:101FD2008100080001302300D5070030D63D0130D2
:101FE2005602043003195502031CA42F22008E1638
:101FF200C4308600223087000030C03F0800093418
:10200200023443340034023401340034C0343234F4
:10201200093404340034003401340234023401340B
:1020220000340534243400341034013404342434AC
:1020320002340234053424340634003401340534C5
:102042002434013400340134073405348134033438
:102052000A340034023409340434013400340234C2
:102062000A340034003400340734053402340234B4
:1020720040340034003407340534823402344034AE
:0420820000340034F2
:102ADA009531942595310139031908006D2D22008D
:102AEA008E1206309631C12622008E1608007C30DE
:102AFA0021009900980127009B01220096012100DC
:102B0A001A1B0800842D6400800101310130FE0285
:102B1A000030FF3B7F087E0403190034892D220010
:102B2A008E1205309631C126953100309631C12674
:102B3A002100A8002808A90022008E1621002908D1
:102B4A0008008831012095319631E62695318B1798
:102B5A000B1788315220953180315720953100303A
:102B6A008B31E9239531AE2D01302300C3070030A4
:102B7A00C43D0030C53D0030C63D6408031D080051
:102B8A000130F0007008DB075B08031D0800FF3006
:102B9A00F0007008DB00080022008C018D01403033
:102BAA008E00103021008C00F0308D003F308E00F6
:102BBA00833023008E008D0110308C0024008D019B
:102BCA008C012100951722009D010800210046086A
:102BDA00031D08003D008E019201163091009F30BE
:102BEA0097007B309200210012153D008E19FF2DAF
:102BFA008E15FA2D01302100A5002508C60008000F
:102C0A002100121123006B08031D1D2E2100260826
:102C1A002300D400210025082300D300210027081F
:102C2A00A80028082300D900D801D80AEB01EB0A2A
:102C3A002100121508002100AA0095317425963149
:102C4A0022008E12D8309631C126963121002A08E8
:102C5A009631C126963100309631C1269631003020
:102C6A009631C126963122008E1695316D250800BF
:102C7A003D001215EF302000E60066083D00900581
:102C8A008E1401302000E60066082300E400DB0110
:102C9A0075302000E0000030E1000030E200003032
:102CAA00E3000030E400E500973135270800FC0016
:102CBA00771D642EF0017C08883110209631F71CAC
:102CCA006B2EF001F00A7C08883110207C08983EAF
:102CDA00F800F9010E30F93D7808FA007908FB008E
:102CEA007A0886007B08870077088100080023009D
:102CFA00E40174302000E0000030E1000030E2001E
:102D0A000030E3000030E400E500973135279631C2
:102D1A003D008E101211101D992EFB302000E60086
:102D2A0066083D009005902E2300DB0108003D0057
:102D3A00181CBC2E23006908860087018030010612
:102D4A00031DBA2E3708860038088700843001062A
:102D5A00031DBA2E0C30F00069088600870170083E
:102D6A00810069088600870181173D001810DF304D
:102D7A00F0007008900508002100A600A701A61F10
:102D8A00C92E22000E15CB2E22000E11031021008F
:102D9A00A60D20008E1DD32E2100261422000E1609
:102DAA00000000000000000022000E120130210085
:102DBA00A5002508A70708302702031CC42E2608E9
:102DCA00080021000E148E148E170D1623000E14FF
:102DDA008E148E170D1622000E1521000E158E1553
:102DEA0022000E1221000E1622008E1621008E16C7
:102DFA0022008C16223023009E0090309D0008305D
:102E0A009F0000309C000B309B000800F8007108FE
:102E1A00F6007008F5007808F4007408F90001302B
:102E2A00F2020030F33B720A0319730A031908000D
:102E3A0075088600760887000108F4007408F70010
:102E4A000130F5070030F63D7708F400790886006E
:102E5A008701740881000130F4007408F907142FFF
:102E6A003C2F9731CA2708008A31AE220800200079
:102E7A006108003A0319452F7F3A03195F2F642F1F
:102E8A006008013A0319362F033A0319642F013AED
:102E9A000319392F063A0319642F773A0319642F55
:102EAA00013A0319642F073A0319642F013A0319E7
:102EBA00642F642F6008FF3A0319642F642F0800F7
:102ECA0022008C120E1521000E118E1522000E12F0
:102EDA0021000E1222008E1621008E12A901000076
:102EEA0001302100A8002808A90764302902031C20
:102EFA00742F22008E12AB309631C12697310030E2
:102F0A009631C126973100309631C126973100306B
:102F1A009631C126973100309631C12622008E168D
:102F2A000800023023006706031D9E2F86314226C1
:102F3A000800E7016208031DC82F21004408013E6A
:102F4A00F6000030453DF7007608860077088700CE
:102F5A00083081005030F6000030F700440886003F
:102F6A004508870042317608C03F7708C13F4408C8
:102F7A008600450887000C30810044088600450811
:102F8A00870081170800E201080000302400B90018
:102F9A000030B8004B30B7000030B600BA01BB01B0
:102FAA000830FD007D08BC002300DA011A30FD005C
:102FBA007D08F700013096315C2697311E30FD00FE
:102FCA007D08F700023096315C269731F001C03057
:102FDA00F1002030F2004030FD007D08F30002309D
:102FEA008C31DB2471082300D0007008CF00CD019A
:102FFA00CE01EB0108001E34033444340034653436
:10300A00003476340034613400346E34003474345D
:10301A0000346534003463340034683400342034B6
:10302A0000344C34003474340034643400342E34A4
:10303A000034123403343034003430340034303441
:10304A000034303400343034003430340034303416
:10305A00003430340034123401340034023402347F
:10306A00003400340834D8340434EE34FF340034E5
:10307A00013401340234033401340E340334693424
:10308A000034633400346534003446340034553433
:10309A0000344E340034583498340034983442346E
:1030AA0098341E3498340434033409340434003414
:0230BA00903450
:020000040001F9
:08000000FF3FFF3FFF3FFF3F00
:04000E00E437CF1FE5
:00000001FF
